:020000040800F2
:1000000000180020210D00082F030008310300080C
:100010003303000835030008370300080000000020
:10002000000000000000000000000000390300088C
:100030003B030008000000003D0300083F030008E8
:10004000690D0008690D0008690D0008690D0008B8
:10005000690D0008690D0008690D0008690D0008A8
:10006000690D0008690D0008690D0008690D000898
:10007000690D0008690D0008690D0008690D000888
:10008000690D0008690D0008690D000800000000F6
:10009000000000000000000000000000690D0008E2
:1000A0000000000000000000000000000000000050
:1000B000690D0008690D000800000000690D0008C6
:1000C000690D00080000000000000000690D000834
:1000D00000000000690D0008690D00080000000024
:1000E000690D0008690D0008000000000000000014
:1000F0000000000000000000000000000000000000
:0C01000000000000000000005FF808F1A3
:10010C00044B05481B1A062B02D9044B03B11847A4
:10011C00704700BF0F0000200C0000200000000002
:10012C0005490648091A891001EBD171491002D012
:10013C00034B03B1184770470C0000200C00002043
:10014C000000000010B5064C237843B9FFF7D8FF28
:10015C00044B13B10448AFF300800123237010BD8E
:10016C000C000020000000006C0D000808B5084BC6
:10017C001BB108490848AFF300800848036813B95D
:10018C00BDE80840CCE7064B002BF9D09847F7E7C1
:10019C0000000000100000206C0D00080C00002076
:1001AC000000000070B50F4E0F4D761BB61018BF37
:1001BC00002405D0013455F8043B9847A642F9D1E8
:1001CC000A4E0B4D00F0CCFD761BB61018BF002468
:1001DC0006D0013455F8043B9847A642F9D170BDBE
:1001EC0070BD00BFA80D0008A80D0008AC0D0008DC
:1001FC00A80D000870B4860746D0541E002A41D0C2
:10020C00CAB2034602E014F1FF343BD303F8012BCE
:10021C009D07F8D1032C2ED9CDB245EA05250F2C1C
:10022C0045EA054519D9264603F11002103E0F2E5A
:10023C0042F8105C42F80C5C42F8085C42F8045C32
:10024C0002F11002F2D8A4F1100222F00F0204F015
:10025C000F041032032C13440DD91E462246043AC7
:10026C00032A46F8045BFAD8221F22F00302043258
:10027C00134404F003042CB1C9B21C4403F8011B51
:10028C009C42FBD170BC704714460346C2E700BFCA
:10029C0008B500F091F800F01BF800F01BFDC82029
:1002AC0000F0AEF8084C00224FF40051204600F04C
:1002BC00AFFCC82000F0A4F801224FF400512046F6
:1002CC0000F0A6FCEBE700BF0010014072B6FEE7A1
:1002DC0000B591B02822002106A8FFF78BFF002360
:1002EC000193029303930493059302230693012332
:1002FC000A9310230B9306A800F0ACF868B90F23EF
:10030C0001930021029103910491059101A800F041
:10031C00DFFA20B911B05DF804FBFFF7D7FFFFF748
:10032C00D5FFFEE7FEE7FEE7FEE7FEE77047704706
:10033C00704708B500F052F808BD000082B00A4BB7
:10034C009A6942F001029A619A6902F001020092E4
:10035C00009ADA6942F08052DA61DB6903F080536B
:10036C000193019B02B070470010024010B5044687
:10037C000E4B18784FF47A73B3FBF0F30C4A1068F9
:10038C00B0FBF3F000F08EFC68B90F2C01D9012002
:10039C0010BD002221464FF0FF3000F051FC054B00
:1003AC001C60002010BD012010BD00BF000000200B
:1003BC00080000200400002008B5074A136843F029
:1003CC0010031360032000F029FC0F20FFF7CEFF71
:1003DC00FFF7B4FF002008BD00200240034A11685B
:1003EC00034B1B780B441360704700BF28000020A0
:1003FC0000000020014B1868704700BF2800002047
:10040C0038B50446FFF7F6FF0546B4F1FF3F02D0BE
:10041C00044B1B781C44FFF7EDFF401B8442FAD8B9
:10042C0038BD00BF0000002082B0084B1B68084A92
:10043C00A2FB03235B0A00FB03F0019000BF019BAE
:10044C005A1E0192002BF9D102B07047080000200F
:10045C00D34D6210002800F0F58170B582B00446CF
:10046C00036813F0010F3DD0AB4B5B6803F00C033A
:10047C00042B2ED0A84B5B6803F00C03082B23D065
:10048C006368B3F5803F51D0002B55D103F1804305
:10049C0003F504331A6822F480321A601A6822F4C5
:1004AC0080221A606368002B60D0FFF7A3FF05461B
:1004BC00994B1B6813F4003F14D1FFF79BFF401BB3
:1004CC006428F5D90320C2E1934B5B6813F4803F99
:1004DC00D6D0914B1B6813F4003F03D06368002BFC
:1004EC0000F0B281236813F0020F65D08A4B5B6871
:1004FC0013F00C0F4ED0884B5B6803F00C03082BE9
:10050C0043D02369002B79D00122844B1A60FFF76A
:10051C0071FF0546804B1B6813F0020F65D1FFF786
:10052C0069FF401B0228F5D9032090E17A4A136831
:10053C0043F480331360B5E7B3F5A02F09D0764BA5
:10054C001A6822F480321A601A6822F480221A6027
:10055C00A8E703F18043A3F53C331A6842F48022E8
:10056C001A601A6842F480321A609BE7FFF742FF68
:10057C000546694B1B6813F4003FB3D0FFF73AFFF5
:10058C00401B6428F5D9032061E1634B5B6813F4CD
:10059C00803FB6D1604B1B6813F0020F04D0236967
:1005AC00012B01D0012052E15B4A136823F0F803C0
:1005BC00616943EAC1031360236813F0080F32D05A
:1005CC00A369002B6ED00122554B1A60FFF712FF66
:1005DC000546514B5B6A13F0020F21D1FFF70AFF5E
:1005EC00401B0228F5D9032031E14B4A136823F054
:1005FC00F803616943EAC1031360DDE70022474B4E
:10060C001A60FFF7F7FE0546434B1B6813F0020F09
:10061C00D2D0FFF7EFFE401B0228F5D9032016E1DC
:10062C000120FFF701FF236813F0040F00F09880FE
:10063C00394BDB6913F0805F46D1374BDA6942F0F6
:10064C008052DA61DB6903F080530193019B012531
:10065C00344B1B6813F4807F38D0E368012B49D0EE
:10066C00002B4DD103F1804303F504331A6A22F0B9
:10067C0001021A621A6A22F004021A62E368002B61
:10068C005CD0FFF7B7FE0646234B1B6A13F0020F34
:10069C0065D1FFF7AFFE801B41F288339842F3D946
:1006AC000320D4E000221E4B1A60FFF7A3FE054680
:1006BC00194B5B6A13F0020FB5D0FFF79BFE401B82
:1006CC000228F5D90320C2E00025C1E7154A1368BA
:1006DC0043F480731360FFF78DFE0646114B1B68C5
:1006EC0013F4807FB9D1FFF785FE801B6428F5D900
:1006FC000320ACE0084A136A43F001031362BDE720
:10070C00052B11D0044B1A6A22F001021A621A6AE4
:10071C0022F004021A62B1E70010024000004242CB
:10072C0080044242007000404C4B1A6A42F00402B2
:10073C001A621A6A42F001021A629FE7FFF75AFE28
:10074C000646464B1B6A13F0020F08D0FFF752FE09
:10075C00801B41F288339842F3D9032077E0E5B946
:10076C00E369002B72D03D4A526802F00C02082A51
:10077C0056D0022B17D00022394B1A60FFF73AFEE5
:10078C000446364B1B6813F0007F47D0FFF732FE50
:10079C00001B0228F5D9032059E0304AD36923F015
:1007AC008053D361DCE700222D4B1A60FFF722FE49
:1007BC0005462A4B1B6813F0007F06D0FFF71AFE84
:1007CC00401B0228F5D9032041E0236AB3F5803F92
:1007DC001AD022494B6823F47413226A606A0243CC
:1007EC0013434B6001221E4B1A60FFF703FE0446B5
:1007FC001A4B1B6813F0007F0ED1FFF7FBFD001B9B
:10080C000228F5D9032022E0144A536823F400335C
:10081C00A1680B435360DCE7002018E0002016E0D1
:10082C00012B16D00D4B5B6803F48031226A914288
:10083C0001D001200BE003F47013626A93420AD0DA
:10084C00012004E001207047012000E0002002B0EC
:10085C0070BD0120FBE70020F9E700BF001002404B
:10086C006000424210B586B0154C94E80F000DF1B3
:10087C00180E0EE90F00238AADF80430114B5B689B
:10088C0003F00C02082A18D1C3F38342724412F805
:10089C00102C13F4803F03D10B4800FB02F00DE049
:1008AC00084B5B68C3F34043734413F8143C07488C
:1008BC0000FB02F0B0FBF3F000E0044806B010BD02
:1008CC00840D00080010024000093D0000127A005F
:1008DC00002800F0A38070B50446524B1B6803F04F
:1008EC0007038B420CD24F4A136823F007030B43C8
:1008FC001360136803F00703994201D0012070BD07
:10090C00236813F0020F17D013F0040F04D0464ADB
:10091C00536843F4E0635360236813F0080F04D06A
:10092C00414A536843F4605353603F4A536823F081
:10093C00F003A068034353600D46236813F0010FC6
:10094C0031D06368012B20D0022B25D0364A126897
:10095C0012F0020F64D034494A6822F003021343A8
:10096C004B60FFF747FD06462F4B5B6803F00C030B
:10097C006268B3EB820F16D0FFF73CFD801B41F28F
:10098C0088339842F0D9032070BD274A126812F4BC
:10099C00003FE0D1012070BD234A126812F0007FA5
:1009AC00D9D1012070BD1F4B1B6803F007039D427A
:1009BC000CD21C4A136823F007032B4313601368F3
:1009CC0003F007039D4201D0012070BD236813F092
:1009DC00040F06D0144A536823F4E063E1680B4318
:1009EC005360236813F0080F07D00F4A536823F4A1
:1009FC006053216943EAC1035360FFF733FF0A4B8D
:100A0C005B68C3F30313094AD35CD840084B1860E6
:100A1C00084B1868FFF7AAFC002070BD0120704736
:100A2C00012070BD0020024000100240980D00080B
:100A3C000800002004000020F0B583B000263446E6
:100A4C006BE0002D00F09A80012D00D1CE68FF2BB9
:100A5C0000F2A8808646FF2B00F2A780A500DEF8E6
:100A6C0000200F27AF4022EA070206FA05F52A43B9
:100A7C00CEF800204A6812F0805F4DD05E4A95692E
:100A8C0045F001059561926902F001020192019A0B
:100A9C00A508AF1C594A52F8272004F00307BF00E1
:100AAC004FF00F0E0EFA07FE22EA0E02DFF85CE1A1
:100ABC00704500F081800EF5806E70457FD00EF58C
:100ACC00806E704575D04FF0030E0EFA07F73A435F
:100ADC0002354A4F47F825204A6812F4803F71D0FE
:100AEC00474D2A681A432A604A6812F4003F6FD0B7
:100AFC00434D6A681A436A604A6812F4801F6DD0CD
:100B0C003F4DAA681A43AA604A6812F4001F6BD0C2
:100B1C003B4DEA681343EB6001340B6833FA04F283
:100B2C0068D00122A24013409A42F5D14D68122D93
:100B3C002ED009D8022D28D083D9032D2ED0112DDB
:100B4C0085D1CE68043682E72E4FBD4216D00CD923
:100B5C002D4FBD4212D007F58037BD420ED0A7F500
:100B6C008017BD427FF473AF08E0A7F58017BD4234
:100B7C0004D007F58037BD427FF469AF8D687DB135
:100B8C00012D08D04261082661E7CE6808365EE781
:100B9C00CE680C365BE70261082658E7002656E75C
:100BAC00042654E700F1040E55E7A4F10805AD0046
:100BBC0055E74FF0020E88E74FF0000E85E74FF037
:100BCC00010E82E70E4D2A6822EA03022A608BE7A7
:100BDC000B4D6A6822EA03026A608DE7084DAA6829
:100BEC0022EA0302AA608FE7054DEA6822EA0303B2
:100BFC00EB6091E703B0F0BD001002400000014033
:100C0C0000040140000021100000311000080140D8
:100C1C0012B909040161704701617047074AD36832
:100C2C0023F4E0631B041B0C000200F4E060184387
:100C3C0040F0BF6040F40030D060704700ED00E041
:100C4C0030B4164BDB68C3F30223C3F10704042C46
:100C5C0028BF04241D1D062D17D9033B012505FAB9
:100C6C0004F4013C2140994005FA03F3013B134085
:100C7C00194300280BDB0901C9B200F1604000F5F3
:100C8C00614080F8001330BC70470023E6E700F0A9
:100C9C000F000901C9B2024B1954F4E700ED00E052
:100CAC0014ED00E00138B0F1807F0AD2064B586099
:100CBC00F021064A82F823100020986007221A605F
:100CCC0070470120704700BF10E000E000ED00E02D
:100CDC007047000000B587B00C4B9A6942F01002C7
:100CEC009A619B6903F010030193019B4FF400532D
:100CFC0002930123039304930323059302A904484D
:100D0C00FFF79AFE07B05DF804FB00BF001002402D
:100D1C00001001400C480D490D4A002302E0D45844
:100D2C00C4500433C4188C42F9D30A4A0A4C002329
:100D3C0001E013600432A242FBD3FFF7C9FFFFF7B7
:100D4C0031FAFFF7A5FA7047000000200C000020D4
:100D5C00B00D00080C0000202C000020FEE7000065
:100D6C00F8B500BFF8BC08BC9E467047F8B500BF8C
:080D7C00F8BC08BC9E4670475C
:100D840002030405060708090A0B0C0D0E0F1010C8
:100D94000102000000000000000000000102030442
:040DA400060708092D
:040DA80079010008C5
:040DAC0051010008E9
:0C0DB00001000000100000000024F4000E
:0400000508000D21C1
:00000001FF
